:020000040800F2
:100000008811002039020008F5220008591E000856
:100010005520000805080008012B0008000000001A
:10002000000000000000000000000000972300080E
:100030004B080008000000009523000895240008E4
:10004000530200085302000853020008530200083C
:10005000530200085302000853020008530200082C
:10006000530200085302000853020008530200081C
:10007000530200085302000853020008530200080C
:1000800053020008530200085302000853020008FC
:1000900053020008530200085302000853020008EC
:1000A00053020008530200085302000853020008DC
:1000B00039250008530200085302000853020008C3
:1000C00053020008530200085302000853020008BC
:1000D00053020008F52A00085302000853020008E2
:1000E000530200085302000853020008530200089C
:1000F000530200085302000853020008530200088C
:10010000530200085302000853020008530200087B
:10011000530200085302000853020008530200086B
:10012000530200085302000853020008530200085B
:10013000530200085302000853020008530200084B
:10014000530200085302000853020008530200083B
:10015000530200085302000853020008530200082B
:10016000530200085302000853020008530200081B
:100170005302000853020008530200080000000068
:10018000530200085302000800F002F800F045F89E
:100190000AA090E8000C82448344AAF10107DA45E2
:1001A00001D100F03AF8AFF2090EBAE80F0013F0EF
:1001B000010F18BFFB1A43F0010318478C4A0000D7
:1001C000AC4A0000103A24BF78C878C1FAD8520768
:1001D00024BF30C830C144BF04680C6070470000C1
:1001E0000023002400250026103A28BF78C1FBD840
:1001F000520728BF30C148BF0B607047732900F019
:100200005082002070471FB504F045FC9DE80300B4
:1002100000F0D6F91FBD10B510BD00F071FA1146FF
:10022000FFF7F1FF03F09CFB00F08FFA03B4FFF738
:10023000F2FF03BC00F0C0FA0948804709480047B4
:10024000FEE7FEE7FEE7FEE7FEE7FEE7FEE7FEE786
:10025000FEE7FEE704480549054A064B70470000E3
:100260002925000889010008880B0020881100203A
:10027000880D0020880D002070B5064600F084F936
:10028000056806F10B0020F00704B4429CBF002073
:1002900070BD2B466A68BAB11068A04210D304F151
:1002A000080188423CBF5068586007D35168101954
:1002B00041601168091B016058601460101D70BD19
:1002C00013465268002AE7D12146284600F064F917
:1002D0000028DED170BD70B50446051F00F054F94A
:1002E0000068002C14BF446870BD002C18BFAC42DD
:1002F0003CBF20466468F8D301680A18AA4218BFB8
:10030000456003D12A6805461144016028684119F7
:10031000A1421CBF6C6070BD6168696021680844BF
:10032000286070BD53EA020C00F069802DE9F04BA3
:100330004FF00006002B1FBFB3FA83F503FA05F454
:1003400024FA05F65E4012BF1643B2FA82F502FAAD
:1003500005F4C5F120051EBF22FA05FC44EA0C0491
:10036000203556EA044C4FEA144418BF641C4FF081
:1003700000084FF00009904271EB030C39D30029BB
:1003800019BFB1FA81F701FA07F6B0FA80F700FA5F
:1003900007F6C7F120071EBF20FA07FC46EA0C0645
:1003A0002037B6FBF4FCA7EB0507103F07F01F0B47
:1003B000CBF120060CFA0BFB2CFA06F644BFB34631
:1003C0000026202FA4BF5E464FF0000B5BEA060C10
:1003D00008BF4FF0010B19EB0B09ABFB027C48EB9C
:1003E0000608C01B06FB02CC0BFB03CC71EB0C0117
:1003F000C1E70B46024641464846BDE8F08B13B5BF
:100400004FF000004FF00001AFF30080BDE81C404A
:10041000704700000FB41CB5074B06AA7B44694621
:100420000090059800F013F90020694600F022F9C9
:100430001CBC5DF814FB0000550200002DE9F041E2
:100440000E460446002020622046E168884730B30B
:10045000252805D0D4E901219047206A401CF2E705
:10046000E168204600278847050018D0A5F1410023
:10047000192802D820354FF4006732462946204615
:100480002760FFF7BBFE40B1012804D0F61D26F01F
:1004900007060836D8E7361DD6E72846DAE7206A89
:1004A000BDE8F08170B50C460546012A05D02878D4
:1004B000800600D5EA69002302E0012305E05B1C09
:1004C000934202D2E05C0028F9D1A869E618C01A6C
:1004D000A861286A184428622846AFF3008004E027
:1004E000D5E9012114F8010B9047B442F8D328460E
:1004F000AFF3008070BD10B5431C02E010F8011B83
:1005000071B18107FAD14FF0013202C88C1A8C43C5
:1005100014EAC211F9D0C01A0A0603D0C01E10BDD9
:10052000C01A10BD0A0401D0801E10BD0902FCD003
:10053000401E10BD4FF0000200B51346944696468B
:10054000203922BFA0E80C50A0E80C50B1F12001E6
:10055000BFF4F7AF090728BFA0E80C5048BF0CC094
:100560005DF804EB890028BF40F8042B08BF7047F2
:1005700048BF20F8022B11F0804F18BF00F8012B64
:100580007047704770477047004870472C0B002039
:10059000704770477047704738B504460A460020D8
:1005A0006946AFF30080002808BF38BD02460099B5
:1005B000204600F083F8012038BD012000F098B8F3
:1005C000F8B5AFF30080054600200C46102000BFB0
:1005D0000646A819A0420DD9324669460020AFF35D
:1005E0000080070008BF00F083F80098A04218BF01
:1005F0000546C419FFF7C8FF05600746F01D20F047
:1006000007004619284600F00AF8B44208BFF8BDB2
:10061000A21B31463868BDE8F84000F04FB8002111
:100620000160C0E9011070471020704710B500F05C
:1006300041F8006810BD10B5044600F03BF80460B6
:1006400010BD000001694A1C02610878704700B5BE
:100650008FB0CDE901310021059105497944CDE9FB
:10066000031011466846FFF7E9FE0FB000BD000019
:10067000E5FFFFFF0A6802F8010B0A60704710B53A
:10068000436913B1AFF3008001E0FFF70BFF0120D6
:1006900010BD127800F124010A7000224A70012274
:1006A000EDE711684FF0FF32E9E7000000487047BE
:1006B000240B002000487047240B002003464068AC
:1006C0008C46002818BF88423CBF03464068F8D3D8
:1006D00018681844884207D00CF1030020F0070086
:1006E000001D411A521A0146081D0A60FFF7F3BDAA
:1006F00010B500F039F8BDE8104000F02FB8704791
:100700007546FFF7D3FFAE4605006946534620F015
:100710000700854618B020B5FFF79CFDBDE82040D6
:100720004FF000064FF000074FF000084FF0000BAD
:1007300021F00701AC46ACE8C009ACE8C009ACE860
:10074000C009ACE8C0098D46704710B50446AFF348
:1007500000802046BDE81040FFF768BD002801D0AA
:1007600000F02AB87047000010B5012805D000211C
:1007700003A000F027F8012010BD09A1F8E7000050
:1007800053494752544D454D3A204F7574206F667A
:100790002068656170206D656D6F727900000000E2
:1007A0003A2048656170206D656D6F727920636FC6
:1007B000727275707465640001491820ABBEFEE763
:1007C0002600020070B505460C460A2000E06D1CAC
:1007D00000F011F835B128780028F8D102E0641C47
:1007E00000F009F814B120780028F8D1BDE8704075
:1007F0000A20AFF3008008B569468DF80000032099
:10080000ABBE08BDFEE74FF4A56148434FF4B47199
:10081000B0FBF1F000EE100AB8EE400ABCEEC00AE0
:1008200010EE100A80B270474FF4B47148434FF491
:10083000A561B0FBF1F000EE100AB8EE400ABCEE84
:10084000C00A10EE100A80B27047704772B6FEE719
:100850002DE9F0410446876D00F066F9064694F8EC
:1008600035000025022806D08020606584F83450C9
:100870000120BDE8F0812068016821F016010160C7
:100880002068416921F080014161206C08B9A06CA9
:1008900020B12068016821F008010160206801682A
:1008A00021F0010101600CE000F03EF9801B0528F9
:1008B00007D920206065032084F8350084F834507F
:1008C000D7E720680068C007EED194F85C103F209D
:1008D0008840B860012084F8350084F83450002046
:1008E000C7E790F83510022903D080214165012027
:1008F0007047052180F835100068016821F001017A
:10090000016000207047000070B5044600F00CF94B
:100910000546601C02D004480078044400F004F945
:10092000401BA042FAD370BD3C0000202DE9F84FD7
:10093000DFF8BCA10022012503264FF00F090AF1C0
:10094000040BAAF1040E00BF0B6805FA02F4234061
:10095000A34270D10F7907F00307012F01D0022FB6
:1009600016D187684FEA420806FA08FC27EA0C0706
:10097000D1F80CC00CFA08FC4CEA070CC0F808C00F
:100980004768A7430C79C4F3001494403C43446087
:100990000C79E443A4070AD0C4684FEA420C06FA73
:1009A0000CF7BC438F6807FA0CF72743C7600C7934
:1009B00004F00304022C12D1D40800EB840CDCF800
:1009C00020405707FF0E09FA07F824EA0804D1F877
:1009D000108008FA07F848EA0408CCF82080046878
:1009E0004FEA420C06FA0CF7BC430F7907F00307F5
:1009F00007FA0CF7274307604C6814F4403F70D0A7
:100A00003C4C276847F480472760246822F003079E
:100A100004F480440094384C07EB040CDCF80848DC
:100A200097074FEA177809FA08F7BC43334FB842E3
:100A300002D1002724E054E0314FB84201D1012710
:100A40001EE0304FB84201D1022719E02E4FB842C4
:100A500001D1032714E02D4FB84201D104270FE044
:100A60002B4FB84201D105270AE02A4FB84201D1E5
:100A7000062705E0284FB84201D1072700E00827E4
:100A800007FA08F72743CCF80878DAF80040574609
:100A9000D1F804C09C435FEACC2C00D51C433C60D9
:100AA000DBF800405F46D1F804C09C435FEA8C2C21
:100AB00000D51C433C60DEF800407746D1F804C006
:100AC0009C435FEA8C3C00D51C433C60084F083FC8
:100AD0003C68D1F804C09C435FEACC3C00D51C4381
:100AE0003C60521C102AFFF42FAFBDE8F88F0000C5
:100AF000083C014044380240003001400000024000
:100B00000004024000080240000C024000100240B5
:100B10000014024000180240001C02400AB181612A
:100B200070470904FBE70000014880687047000037
:100B30003C000020024881680278114481607047BF
:100B40003C0000200B4810B5016841F400710160C1
:100B5000016841F480610160016841F480710160C5
:100B6000032000F06FF80F2000F006F800F024F8E2
:100B7000002010BD003C024070B50D4D04464FF4FE
:100B80007A712878B1FBF0F00A490968B1FBF0F0FE
:100B900000F00AFB48B9102C07D200222146501E53
:100BA00000F030F800206C6070BD012070BD0000C6
:100BB0003C000020480000200A4808B5016841F4C4
:100BC00080410160006800F4804000900548001FEB
:100BD000016841F080510160006800F08050009091
:100BE00008BD000044380240002809DB00F01F0265
:100BF000012191404009800000F1E020C0F800117F
:100C000070470000F0B40E4B1B680C46C3F3022380
:100C1000C3F10705042D00D90425191D072901D2A8
:100C2000002300E0DB1E012606FA05F1491E2140E3
:100C300099409E40761E16403143F0BC01F079BFCA
:100C40000CED00E0064900F0070208684FF6FF03CC
:100C5000184040EA0220034A104308607047000031
:100C60000CED00E00000FA052DE9F0470E46050006
:100C700065D0DFF81481D8F80000F7B200F0070063
:100C8000B04207D288F80070D8F8000000F00700E2
:100C9000B04254D128683D4C810712D5400703D596
:100CA000206840F4E05020602878000703D52068D1
:100CB00040F4604020602068A96820F0F0000843FC
:100CC00020602878C0072DD030496868083901288D
:100CD00012D0022813D0032811D0096889070029EF
:100CE0002DDA216821F0030101432160FFF71CFF89
:100CF000814641F2883A0EE009688903EFE7096806
:100D00008901ECE7FFF710FFA0EB0901514502D97B
:100D10000320BDE8F0872068696800F00C00B0EBA4
:100D2000810FEFD1D8F80010404601F00701B14221
:100D300007D90770006800F00700B04201D0012019
:100D4000E7E72878400705D52068E96820F4E050F7
:100D5000084320602878000706D52068296920F418
:100D6000604040EAC100206000F038F82168084A7D
:100D7000C1F30311515CC840064908600648006889
:100D8000FFF7FAFE0020C4E7003C024008380240AA
:100D90009A4B000848000020400000200448054904
:100DA00000680968044AC1F38221515CC840704759
:100DB0004800002008380240AA4B000804480549B2
:100DC00000680968044AC1F34231515CC840704769
:100DD0004800002008380240AA4B0008154810B50A
:100DE000006810F00C02144813D04110042A0FD0F0
:100DF000082A0ED10F4C241F2268236802F03F02FC
:100E00005B0207D52068C0F38810A0FB010106E053
:100E1000084610BD2168C1F38811A1FB0001002321
:100E2000FFF780FA2168C1F30141491C4900B0FB7A
:100E3000F1F010BD083802400024F4002DE9F84F0D
:100E400004006ED02078DFF84C93C007A9F10405A8
:100E50004AD009F104000168C1F38101012908D0D9
:100E60000068C0F3810002280AD1D9F800004002CE
:100E700006D52868800337D560680028E1D033E0C4
:100E80006068B0F5803F10D0B0F5A02F286810D072
:100E900020F480302860286820F480202860606872
:100EA000A8B1FFF741FE06460DE0286840F4803007
:100EB000F4E740F480202860F7E700BFFFF734FE36
:100EC000801B642873D828688003F7D50CE0FFF7EF
:100ED0002BFE064605E000BFFFF726FE801B6428B8
:100EE000F0D828688003F7D42078DFF8AC82800738
:100EF0004FF0000A3ED5A748001D016811F00C0F05
:100F000008D00068C0F3810002280BD1D9F8000096
:100F1000400207D42868800716D5E068012800D170
:100F200012E033E1E068B8B10120C8F80000FFF733
:100F3000FBFD064605E000BFFFF7F6FD801B02281B
:100F4000C0D828688007F7D52868216920F0F80004
:100F500040EAC10028600DE0C8F800A0FFF7E4FDFA
:100F6000064604E0FFF7E0FD801B02281FD8286832
:100F70008007F7D42078000722D5864F874861691B
:100F8000703771B101210160FFF7CEFD064604E024
:100F9000FFF7CAFD801B022809D838688007F7D5FB
:100FA0000EE0C0F800A0FFF7BFFD064605E082E0B6
:100FB000FFF7BAFD801B02287DD838688007F7D478
:100FC0002078400768D5DFF8CCB100270BF13C0B47
:100FD000DBF80000C0000BD4DBF8001041F08051BA
:100FE000CBF80010DBF80000012700F080500090E3
:100FF0006B4E3068C00510D4306840F480703060AB
:10100000FFF792FD009005E0FFF78EFD0099401A72
:10101000022850D83068C005F6D55E4EA0686C3600
:1010200001280FD00528306810D020F00100306072
:10103000306820F004003060A068B8B1FFF774FD9C
:1010400000900FE0306840F00100F4E740F0040049
:101050003060F7E7FFF768FD0099411A41F28830E8
:10106000814266D830688007F4D50EE0FFF75CFD5A
:10107000009007E0FFF758FD0099411A41F28830CF
:10108000814256D830688007F4D42FB1DBF80010C5
:1010900021F08051CBF80010A069C8B33D49091D6B
:1010A0000968C1F3810102294AD00228504607D0BD
:1010B000C8F8600000E03CE0FFF736FD04463BE086
:1010C0004746C8F86000FFF72FFD064605E000BF61
:1010D000FFF72AFD801B02282BD828688001F7D44F
:1010E000D4E907010843A16A2E4A490802EB0141ED
:1010F000626A41EA8211084394F82C1040EA0161C7
:10110000C9F8001001203866FFF70EFD044606E01E
:101110003EE000BFFFF708FD001B022809D8286841
:101120008001F7D534E000BFFFF7FEFC001B02286A
:1011300002D90320BDE8F88F28688001F4D427E0A5
:101140000128F7D0D9F80000E26900F4800191424B
:101150001CD1226A00F03F01914217D147F6C071BD
:10116000626A0140B1EB821F10D1A26A4FF0FF33D7
:1011700000F4403103EB5202B1EB024F06D194F878
:101180002C1000F07060B0EB016F01D00120D1E7AE
:101190000020CFE70438024000004742800E47425B
:1011A000007000400000FFFF10B5401EB0F1807FCE
:1011B00001D3012010BD4FF0E02460610F216017C2
:1011C00001F0B7FC0020A06107202061002010BDC5
:1011D0007047704770B590F83C20012A32D0012446
:1011E00080F83C40022280F83D2003685A689D68E0
:1011F00022F070060A6832435A60134B02689A4222
:1012000014D0B2F1804F11D0104B9A420ED0104B37
:101210009A420BD00F4B9A4208D00F4B9A4205D0FE
:101220000E4B9A4202D00E4B9A4204D1496825F0E7
:1012300080031943916080F83D40002180F83C1004
:10124000084670BD022070BD00000140000400404F
:1012500000080040000C0040000401400040014034
:101260000018004010B5040003D094F83D0010B100
:1012700007E0012010BD002084F83C00204600F06B
:101280001FF8022084F83D00211D206801F05AF962
:10129000012084F8460084F83E0084F83F0084F87A
:1012A000400084F8410084F8420084F8430084F848
:1012B000440084F8450084F83D00002010BD000083
:1012C00008B50068B0F1804F12D10A48016841F0BA
:1012D000010101600068002200F001000090114649
:1012E0001C20FFF78FFCBDE808401C20FFF77CBCEA
:1012F00008BD00004038024090F83D10012901D09F
:1013000001207047022180F83D100168CA6842F050
:101310000102CA6000681149884214D0B0F1804FC0
:1013200011D00F4988420ED00E4988420BD00E4989
:10133000884208D00D49884205D00D49884202D024
:101340000C49884204D1816801F00701062903D0C5
:10135000016841F001010160002070470000014078
:101360000004004000080040000C00400004014060
:10137000004001400018004070B5044690F83C0061
:101380000025012817D0012684F83C60022084F84B
:101390003D002068826822F0770222F47F4282605A
:1013A0000868502838D00DDC20284FD005DC90B3D9
:1013B000102811D14AE0022070BD302846D04028C4
:1013C0000AD13BE060282FD070280DD0B0F5805FA7
:1013D00003D0B0F5005F12D0012584F83D600020F5
:1013E00084F83C00284670BDCB68D1E90121206813
:1013F00001F019F92068816841F0770109E0CB68B4
:10140000D1E90121206801F00EF92068816841F4DA
:1014100080418160E1E719E0CA684968206801F00D
:10142000D7F95021206806E0CA684968206801F0B1
:10143000E0F96021206801F000F9CEE7CA68496848
:10144000206801F0C5F940212068F4E722680146D0
:101450001046F0E72DE9F0410D46040003D094F862
:101460003D0018B108E00120BDE8F081002084F8BB
:101470003C00204600F040F8022084F83D0020683F
:10148000816844F2070291438160211D206801F0C8
:1014900059F8226890689169166A2B68AF6903430E
:1014A00040F20330814341EA0721A868EF6908430D
:1014B0004FF6FC418843E96840EA07200143286968
:1014C0002F6A000140EA0730084369686D6926F019
:1014D000AA0646EA0515294393602268906154F8EC
:1014E000460B0162012004F81F09E0752076E076C2
:1014F0002077A0750020B7E710B586B00446142108
:101500006846FFF717F81349206888421FD1124830
:101510000021026842F004020260006800F004004A
:1015200005900D481038026842F008020260006819
:1015300000F0080005904FF4405000900220CDE9E3
:101540000101CDE9031069460448FFF7EFF906B041
:1015500010BD00000008004040380240000C02406E
:1015600070B590F83E60044690F83F5090F84230D5
:1015700090F84320022021B104290ED0012E1BD166
:1015800014E0012E18D1012B16D184F83E0084F806
:10159000420001220021206820E0012D0CD1012A07
:1015A0000AD184F83F0084F8430014E0012D03D1F0
:1015B000012B01D1012A01D0012070BD84F83E0029
:1015C00084F83F0084F8420084F84300012200219F
:1015D000206801F01BF801220421206801F016F8B0
:1015E0002068016841F001010160002070BD704772
:1015F00070B50446006801694FF00005C9438907CA
:1016000015D4C168C943890711D4E91E01610120BD
:101610002077206880698007204602D0FFF7E7FF27
:1016200004E000F0C1F8204600F066F92577206854
:101630000169C943490717D4C168C943490713D48D
:101640006FF004010161022020772068806910F4A6
:10165000407F204602D0FFF7CAFF04E000F0A4F864
:10166000204600F049F9257720680169C943090738
:1016700016D4C168C943090712D46FF0080101618B
:10168000042020772068C0698007204602D0FFF739
:10169000AEFF04E000F088F8204600F02DF9257731
:1016A00020680169C943C90617D4C168C943C9067E
:1016B00013D46FF010010161082020772068C06901
:1016C00010F4407F204602D0FFF791FF04E000F0C5
:1016D0006BF8204600F010F9257720680169C943AE
:1016E000C90708D1C168C943C90704D1891E01616E
:1016F000204600F067F920680169C943090609D44A
:10170000C168C943090605D46FF080010161204614
:10171000FFF75EFD20680169C943490609D4C16825
:10172000C943490605D46FF040010161204600F02D
:101730006BF920680169C94389060BD4C168C943A4
:10174000890607D46FF0200101612046BDE8704092
:10175000FFF73FBD70BD000010B586B004461421F0
:101760006846FEF7E7FE0D492068884214D10C4810
:101770000021026842F001020260006800F00100EE
:101780000590402000900220CDE90101CDE9031031
:1017900069460448FFF7CAF806B010BD00040040CF
:1017A0003038024000000240704770B5044690F89F
:1017B0003C0000260D4601280FD0012084F83C0093
:1017C0006AB1042A1DD0082A2FD00C2A3FD0012646
:1017D000002084F83C00304670BD022070BD2068B7
:1017E00000F034FF2068816941F0080181612068C0
:1017F000816921F004018161206881692A691143AE
:1018000011E0206800F052FF2068816941F4006116
:1018100081612068816921F480618161206881692A
:101820002A6941EA02218161D2E7206800F074FF51
:101830002068C16941F00801C1612068C16921F0D7
:101840000401C1612068C1692A69114311E020685F
:1018500000F096FF2068C16941F40061C161206811
:10186000C16921F48061C1612068C1692A6941EAC6
:101870000221C161ACE710B5040003D094F83D002B
:1018800010B107E0012010BD002084F83C00204684
:1018900000F01EF8022084F83D00211D206800F0B1
:1018A00051FE012084F8460084F83E0084F83F0091
:1018B00084F8400084F8410084F8420084F8430032
:1018C00084F8440084F8450084F83D00002010BDF1
:1018D00008B500680649884208D10648016841F009
:1018E00002010160006800F00200009008BD0000E5
:1018F00000040040403802407047000010B5044624
:10190000022249B104290ED0082913D094F84100CD
:10191000012816D0012010BD94F83E000128F9D10D
:1019200084F83E200FE094F83F000128F2D184F8BB
:101930003F2008E094F840000128EBD184F84020D3
:1019400001E084F841200122206800F05FFE164982
:101950002068164A884201D0904203D1436C43F478
:10196000004343642068884213D0B0F1804F10D008
:101970000F4988420DD00F4988420AD00E4988424B
:1019800007D0904205D00D49884202D00C498842C8
:1019900004D1816801F00701062903D0016841F0F4
:1019A00001010160002010BD000001400004014061
:1019B0000004004000080040000C004000400140CE
:1019C000001800400D4900680968884212D10C488F
:1019D000017808290ED2DFE801F00D0D0D040D0D80
:1019E0000D0E08490988C82902D8192000F040BC0A
:1019F00001210170704700F05BBB00004C0000202B
:101A0000100000201200002070477047704700004F
:101A1000F8B5016804460868CA684B6910F00F0FF2
:101A20004FF0000559D003F0010602F490773743D8
:101A300065D0C10705D0D10503D5216C41F0010166
:101A40002164410705D5D90703D0216C41F002017B
:101A50002164810705D5D90703D0216C41F0040129
:101A60002164010707D502F02001314303D0216C26
:101A700041F008012164216C00293AD0800604D588
:101A8000900602D5204600F0F5FE20684069216CE2
:101A9000C0F38010090700D460B3204600F0C3FEF5
:101AA00020684069400621D52068143050E8001FA6
:101AB00021F0400140E80012002AF5D1A06BA8B146
:101AC0006C490165A06BFEF70CFF002811D0A06BDC
:101AD000016D01B0BDE8F040084783060FD59306BD
:101AE0000DD52046BDE8F84000F0C4BE2046FFF703
:101AF0008DFFF8BD2046FFF789FF2564F8BD266BF2
:101B00002023012E79D1C60677D5D60675D508686B
:101B1000486800904869400640D5A16B0868406855
:101B20000004000CEAD0A28D8242E7D9E085C869A2
:101B3000B0F5807F2DD020680C3050E8001F21F4D4
:101B4000807140E80012002AF5D12068143050E876
:101B5000001F21F0010140E80012002AF5D12068A1
:101B6000143050E8001F21F0400140E80012002A24
:101B7000F5D184F83E30256320680C3050E8001F12
:101B800021F0100140E80012002AF5D1A06BFEF709
:101B90005FFEA08DE18D401A81B229E0A08DE18D1C
:101BA000401A81B2E08D0028A8D00029A6D0206874
:101BB0000C3050E8002F22F4907240E80026002EEE
:101BC000F5D12068143050E8002F22F0010240E8DF
:101BD0000026002EF5D184F83E30256320680C30B5
:101BE00050E8002F22F0100240E80023002BF5D12E
:101BF0002046FFF70AFFF8BDFFE705062BD51506BF
:101C000029D594F83D002128F5D1A068B0F5805F72
:101C100001D12069B0B1206A411C2162216800789D
:101C20004860E08C401E0004000CE084E3D1206892
:101C3000C16821F08001C1602068C16841F04001A5
:101C4000C160D8E7206A0088C0F308004860206AB5
:101C5000801C2062E5E74006CDD55006CBD5CA688A
:101C6000204622F04002CA6084F83D3000F0F3F8CC
:101C7000C1E700001728000870B5040004D094F8EC
:101C80003D00002510B106E0012070BD84F83C50F5
:101C9000204600F023F8242084F83D002068C16825
:101CA00021F40051C160204600F044FE2068016923
:101CB00021F4904101612068416921F02A014161CC
:101CC0002068C16841F40051C1602564202084F877
:101CD0003D0084F83E00002070BD000010B586B0C5
:101CE000044614216846FEF725FC174920688842FF
:101CF00028D116480021026842F0100202600068F4
:101D000000F01000059011481438026842F00202F9
:101D10000260006800F002000590C02000900220E0
:101D2000CDE901010320039007200490694608488B
:101D3000FEF7FCFD002211462520FEF763FF25205B
:101D4000FEF752FF06B010BD0010014044380240BB
:101D50000004024090F83E30202B0ED159B152B110
:101D600090F83C30012B08D0012380F83C30002350
:101D7000036300F065BE0120704702207047000039
:101D8000054900680968884205D1044901200870A6
:101D9000034800F015BB70472401002028000020F4
:101DA000100B00202DE9F843044690F83D001F4633
:101DB00016460D4620284CD1C5B1BEB194F83C0062
:101DC000012846D0012084F83C004FF00008C4F8F8
:101DD0004080212084F83D00FEF7A6FEA6848146BF
:101DE000E684A068B0F5805F03D004E00120BDE880
:101DF000F883206928B12E465FF0000584F83C8006
:101E00000EE00026FAE78021204600F036FEA0B959
:101E1000AEB116F8010B21684860E08C401EE084EA
:101E2000E08C4B464FF0000200970028EBD14FF0BA
:101E30004001204600F021FE30B10320D7E735F8FD
:101E4000020BC0F30800E6E7202084F83D000020E4
:101E5000CDE70220CBE77047FEE7000070B586B003
:101E600014216846FEF766FB1A480024016841F019
:101E700080010160016801F080010591016841F075
:101E800001010160016801F001010591016841F063
:101E900002010160016801F002010591016841F051
:101EA0000801016000680C4E00F008004FF4006566
:101EB0000590002229463046FEF730FE01200095AD
:101EC000CDE90104694630460394FEF72FFD06B0C4
:101ED00070BD0000303802400004024010B586B0EA
:101EE00000241648009401940294039404944FF043
:101EF0008041059401606321C0E9011440F60F613F
:101F0000C0E903148461FFF7ADF908B1FEF79EFC48
:101F10004FF48050009069460848FFF72DFA08B149
:101F2000FEF794FC049404A904480594FFF752F9C1
:101F3000002801D0FEF78AFC06B010BD4C0000203E
:101F400030B589B0002407941C2168460894FEF738
:101F5000F1FA16481449602501600921C0E901150C
:101F600041F61F41C0E903148461FFF784FC08B106
:101F7000FEF76CFC079407A90C480894FFF72AF9B0
:101F800008B1FEF763FCCDE90054029400226946D3
:101F900006480494FFF709FC08B1FEF757FC034814
:101FA000FFF7DAFB09B030BD0004004094000020C8
:101FB00010B58CB024216846FEF7BCFA0024164800
:101FC000099414490A94C0E900144FF6FF71C0E95E
:101FD0000241046184610320CDE900040120CDE9C0
:101FE00002040494CDE90540079469460A48089420
:101FF000FFF730FA08B1FEF729FC099409A9064851
:102000000A94FFF7E7F8002801D0FEF71FFC0CB098
:1020100010BD000000080040DC0000200C4810B596
:102020000A4901604FF4E1314160002181600C22D6
:10203000C160C0E904128161C161FFF71DFE002883
:1020400003D0BDE81040FEF701BC10BD00100140F8
:1020500024010020FEE7000010B51048FFF74CF9FE
:1020600000210F48FFF74AFC00210E48FFF778FADD
:1020700004210C48FFF774FA0B4800F07DF9DFEDFE
:102080000B0AB7EE000A0848B0EE601A00F060F9DB
:10209000BDE81040002000F0DBB800004C0000203C
:1020A00094000020DC0000206801002000000000F7
:1020B0002DE9F0415D4F2DED028B3868406A5C4D93
:1020C000A0F500409FED5B8A5B4CE860F0EE001AE3
:1020D00094ED0C0AD4ED090AB4EEE00AF1EE10FA20
:1020E00010D894ED031A61EE000A21EE211A60EE79
:1020F000800A21EE000AFDEEE00A85ED020AF8EE04
:10210000E00A33E0D4ED0A0AB4EEE00AF1EE10FA88
:102110000AD8D4ED050A94ED041A41EE000ABDEE8A
:10212000E00AF8EEC00A1CE0D4ED0B0AB4EEE00AB7
:10213000F1EE10FA18D894ED062A94ED071AD4EDB2
:10214000082A62EE000A62EE211A60EE800A41EE71
:10215000000A01EE801A70EEA20AFDEEE00AF8EE27
:10216000E00A85ED021A01E0D4ED020ABCEEE00AB5
:1021700010EE100A80B2FEF746FB286100EE100A4E
:10218000D5ED030A9FED2D1AB8EE400AF8EE600A6D
:102190002B4800F0B1F8BDEEC00A2A4E10EE100A2E
:1021A00000B26860002803DB012002E0404205E045
:1021B000002000F04DF868680028F7DB316880B235
:1021C0004863D4ED0C0A94ED0B0AF4EEC00AF1EE6C
:1021D00010FA0FDD39684FF4004048620020686053
:1021E00085ED028A84ED0C8A012028703168002078
:1021F00048630BE0A88980B2FEF716FB104A698895
:1022000002EB4102491CA2F8A4016980206B02F094
:10221000D1FB9FED0D1B53EC112B01F05BFE01F088
:1022200027FE2063BDEC028BBDE8F081DC000020BE
:102230001000002000000000DC0A00200AD7233C28
:1022400068010020940000207B14AE47E17A843FAF
:10225000064B4FF4006128B1012805D10122184630
:10226000FEF75CBC0022FAE7704700000004024061
:1022700070B51B490968496A1A4CA1F50041E16033
:10228000FEF7C1FA206100EE100AD4ED030A9FEDBB
:10229000161AB8EE400AF8EE600A144800F02CF85E
:1022A000BDEEC00A124D10EE100A00B260600028A8
:1022B00003DB012002E0404205E00020FFF7C8FFF9
:1022C00060680028F7DB296880B24863074A6088A5
:1022D000A18902EB4002401C9182608070BD000029
:1022E000DC000020100000200AD7233C68010020F9
:1022F00094000020FEE7000070EE600A1349F6EE3D
:10230000002AC1ED000A90ED000A60EE201A90ED5F
:10231000040A30EE200A80ED040A90ED012A22EE34
:10232000012A22EE222AD0ED032A22EE000A70EEC4
:10233000E22A90ED022AC0ED030A31EE800A62EE35
:10234000222A82EE812A30EE020A70472400002001
:1023500000B5F0EE401A014600F00EF8C1ED001A8B
:10236000C1ED010A81ED021A02494FF400400968EB
:10237000486200BDDC0000209FED040A80ED040AE5
:1023800080ED030A024880ED000A7047000000005B
:102390002400002070477047122202490248FFF7CC
:1023A000D9BC0000100B0020240100201222024999
:1023B0000248FFF7CFBC0000100B002024010020D2
:1023C00010B5154A01781278914223D11249407C08
:1023D000491C097888421DD1042201210F4801F0CF
:1023E0002AFD0D4C0068641E0322C4F80700052175
:1023F0000A4801F020FD0188A1808078A0710822A0
:102400001146064801F017FD0168C4F80B1040683A
:10241000C4F80F0010BD000029000020100B0020A0
:102420002DE9F041074615460E461220FDF724FF20
:102430000F4904464FF47A734A7802703868C4F83A
:1024400001003088A4F80500B078E0712868A06029
:102450006868E060C8782074887860741222214629
:102460000448FFF79FFC2046BDE8F041FDF733BF6D
:10247000280000202401002030B5002306E0C45CC1
:10248000CD5CAC4201D0002030BD5B1C9342F6DB3A
:10249000012030BDFEF74EBB30B593B03021684609
:1024A000FEF748F814210CA8FEF744F81C48002554
:1024B000016841F080510160006800F08050119087
:1024C0001848016841F4804101600068022400F46A
:1024D0008040119001200090000401908001CDE91E
:1024E000064008AA0420482182E813000B906846A1
:1024F000FEF7A4FC08B172B6FEE70CA90F2081E834
:1025000031004FF48050CDE90F0502210CA8FEF7F1
:10251000ABFB002801D072B6FEE713B030BD00005F
:1025200040380240007000400248016841F47001E8
:102530000160704788ED00E00148FFF759B80000DE
:102540004C000020F0B50268254C264D264E274F42
:10255000274B4FF0804CA04209D0604507D0A842DD
:1025600005D0B04203D0B84201D0984204D122F045
:10257000700E4A6842EA0E02A0421BD0604519D094
:10258000A84217D0B04215D0B84213D0984211D00B
:10259000184DA8420ED0184DA8420BD0174DA84296
:1025A00008D0174DA84205D0164DA84202D0164DAE
:1025B000A84203D122F44075CA682A434D6922F02B
:1025C00080022A4302608A68C2620A688262A0426C
:1025D00001D0984201D10969016301214161F0BD37
:1025E000000001400004004000080040000C0040D2
:1025F0000004014000400140004401400048014007
:1026000000180040001C00400020004010B501F000
:102610001F030121046A99408C430462016A9A40B5
:102620001143016210BD10B5846842EA032224F40C
:102630007F440A432243826010BD826822F0700208
:102640000A4342F00701816070470000F0B5026A5A
:1026500022F001020262036A42688469124E24F089
:1026600073050C682C4323F002058B682B430D4D3A
:10267000A84201D0B04205D123F00807CB683B4304
:1026800023F00403A84201D0B04205D14D6922F4E1
:10269000407215438A692A434260846149684163F4
:1026A0000362F0BD0000014000040140F0B5026A81
:1026B00022F010020262026A436884690D6824F401
:1026C000E64444EA05248D6822F0200242EA05121D
:1026D0000F4D104EA84201D0B04206D1CF6822F073
:1026E000800242EA071222F04002A84201D0B04222
:1026F00007D14D6923F4406343EA85038D6943EABA
:10270000850343608461496881630262F0BD000013
:102710000000014000040140F0B5026A22F480721A
:102720000262026A4368C46922F4007224F07305ED
:102730000C68124E2C438D6842EA05220E4DA842C9
:1027400001D0B04206D1CF6822F4006242EA0722EB
:1027500022F48062A84201D0B04207D14D6923F42F
:10276000405343EA05138D6943EA05134360C4618E
:102770004968C1630262F0BD0000014000040140ED
:1027800030B5026A22F480520262046A4268C36968
:102790000D6823F4E64343EA05238D6824F40054CE
:1027A00044EA0534084DA84202D0084DA84204D19D
:1027B0004D6922F4804242EA85124260C361496851
:1027C0000164046230BD00000000014000040140CB
:1027D00010B5036A046A24F001040462846924F0D9
:1027E000F00444EA021423F00A020A4384610262FC
:1027F00010BD10B5036A23F0100303628369046AF5
:1028000023F4704343EA023224F0A00343EA0111A7
:102810008261016210BD10B5806B0021C185C18449
:10282000FFF7F4F810BD01680C3151E8002F22F4D5
:10283000907241E80023002BF5D10168143151E872
:10284000002F22F0010241E80023002BF5D1016B9B
:10285000012909D101680C3151E8002F22F0100242
:1028600041E80023002BF5D1202180F83E10002103
:102870000163704708B590F83E10222901D002206C
:1028800008BD82684FF480539A4201D1016921B199
:10289000816A9A421BD04AB10AE00268816A526892
:1028A000C2F308020A80816A891C08E0026972B1D9
:1028B0000268526802F07F020A70816A491C8162D4
:1028C000C18D491E0904090CC18503D019E00268B5
:1028D0005268F1E70168CA6822F02002CA60016804
:1028E000CA6822F48072CA6001684A6922F0010253
:1028F0004A61202180F83E10016B012903D0FFF7C7
:102900003FFA002008BD0021016301680C3151E845
:10291000002F22F0100241E80023002BF5D10168BE
:102920000A68D20602D50A6849680091818DFFF7CE
:102930006CF8E6E770B5044600680169E26821F4C6
:102940004051114301612169A068E269084361694E
:10295000114308432168CA6849F20C639A43024351
:10296000CA6020684169A26921F440711143416144
:1029700031492068884202D03049884202D1FEF7AE
:102980001DFA01E0FEF70AFAE26900231921642525
:102990003226B2F5004F626828D0A0FB0101930FE8
:1029A0009200FDF7BFFC0146B0FBF5F06FF0180296
:1029B000504301EB800006EB0010B0FBF5F000F097
:1029C000F002B1FBF5F002EB0012B1FBF5F06FF095
:1029D0001803584301EB800006EB0010B0FBF5F044
:1029E00000F00F0021681044886070BDA0FB010159
:1029F00092185B41FDF796FC0146B0FBF5F0020131
:102A0000B1FBF5F06FF01803584301EB800006EBC3
:102A1000C000B0FBF5F000F0F80002EB4002B1FBA3
:102A2000F5F0584301EB800006EBC000B0FBF5F079
:102A300000F00700D6E7000000100140001401403C
:102A400081628285C28500210164222280F83E20B5
:102A500080F83C10016921B10168CA6842F48072B3
:102A6000CA6001684A6942F001024A610068C168AF
:102A700041F02001C160002070472DE9F0419846E7
:102A800017460E460446069D27E0681C25D02DB14A
:102A9000FEF74AF8A0EB0800A8421ED920680C30C7
:102AA00050E8001F21F4D07140E80012002AF5D14F
:102AB0002068143050E8001F21F0010140E80012A6
:102AC000002AF5D1202084F83D0084F83E00002043
:102AD00084F83C000320BDE8F0812068006836EAF5
:102AE000000004D00020B842CFD00020F3E701203E
:102AF000F9E700000148FEF78BBF00002401002029
:102B0000FEE703B401984100009850EAC12018BFC5
:102B100004204A0D18BF40F0010040F2FF72B2EBF2
:102B2000515F08BF40F00200012808BF052002B035
:102B300070470907090E002804DB00F1E02080F847
:102B40000014704700F00F0000F1E02080F8141D21
:102B500070470000000000002DE9F04D2DED040B42
:102B60002DED0E8B96B0DDE92550279CDDF890A069
:102B700025F0004624F00048BAF1000F14BF0121EF
:102B8000002101EB4502FC4953184A1093422AD315
:102B9000002814BF0123002303EB44030B44F7492F
:102BA0008B4220D358EA00019FEDF59B76D0DFF8E9
:102BB000D8B35D4503D1BAF1000F05D188E0BAF171
:102BC000000F08BF002100D0012101EB450111F5E4
:102BD000001F08D8002814BF0121002101EB440187
:102BE00011F5001F0BD99DED261B9DED240B16B092
:102BF000BDEC0E8B04B0BDE8F04D00F069BE0027BF
:102C0000002DBCBFE149884521DAE1498845A8BFCC
:102C100002271CDAC3451ADCDE4901EB28511429CE
:102C200008DDC1F1340220FA02F101FA02F2824217
:102C30000DD108E058B9C1F1140228FA02F101FAE5
:102C400002F2424503D101F00101C1F1020756EA47
:102C50000A0124D1002C22DA002D18BF022F01D046
:102C6000012F0AD00220FDF7E6FC16B0BDEC0E8B5A
:102C700004B0BDE8F04D00F013BE0220FDF7DBFC10
:102C800000F00EFE51EC100B01F0E6F841EC100BD9
:102C900016B0BDEC0E8B04B0BDE8F08D18E09FEDD2
:102CA000BEAB9FEDBF8B002871D1B848804522D1C3
:102CB00005F1804010F5801008BFBAF1000F07D071
:102CC000B3450ADC002CA8BF9DED260BE0DA0DE031
:102CD000B0EE490AF0EE690ADAE7002C06DA9DED5B
:102CE000260B51EC100B01F0B7F86FE0AE487844BA
:102CF00090ED000BCCE7D8454DD1002C48DA2EB131
:102D000086423AD1BAF1000F42D126E0BAF1000F63
:102D100013D00220FDF78FFC00F0F6FD8DED020BC5
:102D20009DED240B8DED000B10EE900A039961F3DD
:102D30001E0003909DED020BAAE78DED02AB9DED09
:102D4000240B1AEE901A10EE900A8DED000B61F331
:102D50001E0003909DED020B9AE78DED028B9DED19
:102D6000240B18EE901A10EE900A8DED000B61F313
:102D70001E0003909DED020B8AE709DA9DED240BFE
:102D800051EC190B53EC102B01F060F91EE020E020
:102D90009DED240B7CE786421BDAB4F1804F0DD009
:102DA000A4F10050B0F1FF5013D1002D11DB9DEDC7
:102DB000240B51EC100B01F007F807E09DED240BFC
:102DC00053EC102B51EC100B00F0C2BC41EC100B7B
:102DD0005EE79DED240B51EC100B00F0B5FDBAF150
:102DE000000FCDE90E0142D19FED710B46B3A6F164
:102DF000E040B0F17F600CD05E4538D1002D00DAA4
:102E0000A7B3022F0CBF01204FF0FF3001F076FA7C
:102E1000DCE7002D01DD002C0DDA002D01DD002C9A
:102E20001FDB002D16DA002C14DB012F08BF9FEDED
:102E3000620B3FF42DAFB0EE4A0AF0EE6A0A27E7C4
:102E4000022F18BF002D0CD0012F0AD1002DFFF644
:102E50001FAF06E0002DB8BF002C08DA012F3FF4A9
:102E600017AFB0EE480AF0EE680A11E71BE0012048
:102E700000EBE57050EA070115D0791EB0EE498AE3
:102E8000F0EE698A084308BF9FED4D8B4E48002540
:102E9000804570DD4D494E48884514DDB0420DDB5C
:102EA000002C19DB2FE00120FDF7C5FB16B0BDECAF
:102EB0000E8B04B0BDE8F04D00F016BDB34502DC4A
:102EC000002C09DC1FE0864202DA002C1BDA03E04A
:102ED0005E452BDD002C16DD0220FDF7ACFB00F07B
:102EE00013FD8DED020B53EC1A2B51EC180B01F076
:102EF0006BFACDE900010399019861F31E0003907C
:102F00009DED020BC4E60220FDF795FB00F00CFDE1
:102F100010EE901A18EE900A8DED020B8DED008BDD
:102F200061F31E0003909DED020BB1E69DED0E0BCB
:102F300053EC192B51EC100B01F052FC9FED260BBA
:102F4000CDE9080153EC102B9DED080B51EC100B53
:102F500001F03AFA9FED221B53EC112B01F068FBB4
:102F60009DED081B53EC112B01F02EFA9FED1E1B5B
:102F700053EC112B3CE08CE0FFFF1F00FFFF0F0024
:102F8000000000000000F03F0000F03F0000F07F74
:102F90000000404301FCFFFF000000000000F07F44
:102FA00000000000000000004E1F000000000000B4
:102FB0000000000000000080000000000000F0FFA2
:102FC000000000000000F0BF0000E0410000F043FE
:102FD000FFFFEF3F00000000000000000000D03FB6
:102FE000555555555555D53F000000000000E03FB0
:102FF00001F01EFB9DED080B41EC1A0B53EC102B5E
:1030000051EC100B01F0E0F953EC1A2B01F0DCF954
:1030100041EC1A0B9FEDFE0B53EC102B9DED080BB2
:1030200051EC100B01F0D0F941EC1B0B9FEDFA0BAA
:1030300051EC1A0B53EC102B01F0C6F941EC1A0BB2
:103040009FEDF70B53EC102B9DED080B51EC100B83
:1030500001F0BAF953EC1A2B01F0C2FB41EC1A0B48
:1030600051EC1B0B53EC1A2B00F034FF0690CDE90A
:1030700006519DED060B53EC1B2B51EC100B01F090
:10308000AFFB53EC1A2B01F0D3FA41EC100B00F01C
:10309000A1B90020B6F5801F0EDA9FEDE30B53ECCB
:1030A000102B9DED0E0B51EC100B01F08DF9CDE9BD
:1030B0000E016FF034000E4600EB2650A0F2FF37F1
:1030C000C6F31300DA4940F07F6646F04056884266
:1030D000D8BF002408DDD7498142C8BF012403DCE2
:1030E0000024A6F580167F1CD348784400EBC4006A
:1030F0000F9690ED00CB9DED0E0B53EC1C2B51EC7D
:10310000100B01F06DFB9DED0E0B41EC1B0B53EC16
:103110001C2B51EC100B00F0DDFE41EC100B51ECC0
:10312000190B53EC102B00F091FF41EC1D0B51ECEF
:103130001B0B53EC1D2B01F047F941EC1A0BBF4858
:103140008DED10AB7844109590ED000B4FF00050D2
:1031500040EA660000EB84408DED080B00F500208E
:1031600009909DED080B53EC1C2B51EC100B01F05A
:1031700037FB9DED0E1B53EC112B01F059FA41EC7E
:10318000100B53EC102B9DED100B51EC100B01F0BC
:103190001BF99DED080B41EC1C0B53EC102B9DED26
:1031A000100B51EC100B01F00FF953EC1B2B01F03D
:1031B0003FFA53EC1C2B01F013FB53EC1D2B01F0D9
:1031C00003F941EC1C0B53EC1A2B51EC1A0B01F0D8
:1031D000FBF841EC1B0B9A480621B0EE4B0AF0EECF
:1031E0006B0A784400F0E0FAB0EE401AF0EE601A94
:1031F000B0EE41DAF0EE61DA53EC1B2B51EC1B0B15
:1032000001F0E2F853EC1D2B01F0DEF89DED100B00
:1032100041EC1B0B53EC1A2B51EC100B00F05AFE37
:1032200053EC1C2B01F0D0F853EC1B2B00F052FE9A
:103230009DED100B41EC1B0B53EC102B51EC100BC4
:1032400001F0C2F841EC1D0B9FED7FEB53EC1E2B00
:1032500000F040FE53EC1B2B00F03CFE0890CDE943
:1032600008519DED080B53EC1E2B51EC100B01F097
:10327000B7FA53EC1D2B01F0B3FA53EC1B2B01F002
:10328000D7F99DED080B41EC1D0B53EC102B9DED78
:10329000100B51EC100B01F097F841EC1B0B53ECA9
:1032A0001A2B51EC1D0B01F08FF89DED080B41EC32
:1032B0001A0B53EC102B51EC1C0B01F085F853EC5E
:1032C0001A2B00F007FE41EC1A0B51EC1B0B53ECD0
:1032D0001A2B00F0FFFD0C90CDE90C519DED0C0B6D
:1032E00053EC1B2B51EC100B01F07AFA53EC1A2B18
:1032F00001F09EF941EC1B0B9FED550B53EC102B8D
:103300009DED0C0B51EC100B01F05EF841EC1A0B2B
:103310009FED510B51EC1B0B53EC102B01F054F8AB
:1033200041EC1B0B9FED4E0B53EC102B9DED0C0B4A
:1033300051EC100B01F048F853EC1B2B00F0CAFDC8
:1033400041EC100B4848784400EBC40090ED001BA2
:1033500051EC100B53EC112B00F0BCFD41EC1B0B9E
:10336000384600F0CBFFCDE9080153EC1B2B51ECA4
:103370001A0B00F0AFFD41EC100B3C48784400EB19
:10338000C40090ED00CB51EC100B53EC1C2B00F063
:10339000A1FD9DED081B53EC112B00F09BFD069049
:1033A000CDE906519DED080B53EC102B9DED060B5E
:1033B00051EC100B01F014FA53EC1C2B01F010FA35
:1033C00053EC1A2B01F00CFA53EC1B2B01F030F9E3
:1033D00041EC100B9DED261B53EC102B8DED001BCB
:1033E00000959DED260B51EC100B00F0EDFF9DEDCF
:1033F000000B41EC1A0B53EC102B9DED260B51ECFE
:10340000100B01F0EDF99DED061B53EC112B2FE095
:10341000000000604715F73FFE822B654715F73F18
:1034200044DF5DF80BAE543E000000000000404356
:103430008E9803007AB60B00CA1A0000F81A000032
:10344000021A000000000000000000000000084018
:10345000000000E009C7EE3FFD033ADC09C7EE3F7C
:10346000F5015B14E02F3EBE8E18000048180000E6
:1034700000F0AAFF53EC1A2B00F02CFD9DED060B7B
:1034800041EC1A0B53EC102B9DED000B51EC100B83
:1034900000F09AFFCDE90C019DED0C0B51EC1A0BDD
:1034A00053EC102B00F016FDCDE902010C46AA49A1
:1034B0008C422FDB611A084318D19DED0C0B53ECA5
:1034C000102B9DED020B51EC100B01F089F941EC32
:1034D0001B0B9FEDA30B51EC1A0B53EC102B00F0C0
:1034E000F9FC53EC1B2B01F06DF82DD20220FDF7F7
:1034F000A2F800F009FA10EE901A18EE900A8DED7D
:10350000020B8DED008B61F31E0003909DED020B0D
:10351000FFF7BEBB944A24F00041914214D3934973
:10352000214408437FF4EFAC9DED0C0B53EC102BC2
:103530009DED020B51EC100B01F052F953EC1A2BDC
:1035400001F040F87FF6DFAC24F000408849894A5A
:10355000002601EB205182422BDA481C4FF48011E7
:1035600021FA00F02044844AC0F30A517A44A1F2BF
:10357000FF3192ED000B814A8DED080BCA4020EA25
:103580000202C0F3130040F48010C1F1140120FACC
:1035900001F60992002CB8BF76429DED080B53EC62
:1035A000102B9DED0C0B51EC100B01F019F9CDE92E
:1035B0000C019DED0C0B51EC1A0B53EC102B00F091
:1035C00089FC9FED6F0B0890CDE9085153EC102B4F
:1035D0009DED080B51EC100B00F0F6FE41EC1B0BBF
:1035E0009FED690B53EC102B9DED080B51EC100B6C
:1035F00000F0EAFE9DED0C0B41EC1C0B53EC102B84
:103600009DED080B51EC100B01F0EAF853EC1A2B6E
:1036100001F00EF89FED5E1B53EC112B00F0D4FE71
:1036200053EC1C2B00F056FC41EC1A0B51EC1B0B1D
:1036300053EC1A2B00F04EFCCDE902019DED020B7C
:1036400053EC1B2B51EC100B01F0CAF853EC1A2B66
:1036500000F0EEFF9DED020B41EC1A0B53EC102B2A
:1036600051EC100B00F0B0FECDE908014A489DED89
:10367000080B0521784400F097F89DED081B51ECEC
:10368000100B53EC112B00F09FFE9DED021B53EC31
:10369000112B00F0CDFFCDE906019DED020B53EC9F
:1036A0001A2B51EC100B00F08FFE53EC1A2B00F08C
:1036B00011FC9FED3B0B41EC1A0B53EC102B9DEDD5
:1036C000060B51EC100B01F08BF89DED060B41EC55
:1036D0001B0B53EC102B9DED020B51EC100B00F06B
:1036E00073FE53EC1B2B00F0B1FC53EC1A2B01F0D2
:1036F00077F89DED021B53EC112B01F071F853ECA0
:10370000192B00F095FFCDE9020101EB06500115E0
:103710000029C8BF039015DC9DED020B324651EC29
:10372000100B01F0F4F9FFF7ECF9042808BF00F0E2
:10373000FBF832469DED020B51EC100B01F0E7F95E
:10374000CDE902019DED020B51EC180B53EC102B4F
:1037500000F03AFEFFF73ABB000090400000000086
:10376000FE822B654715973C00CC904000346F3F9C
:1037700001FCFFFF0000E03FD0160000FFFF0F003C
:1037800000000000432EE63F396CA80C615C20BEAF
:10379000EF39FAFE422EE63FA015000000000000BF
:1037A000000000000000004070B504462DED028BC3
:1037B0004D1E00EBC500B0EE408AF0EE608A90ED41
:1037C000000B35F0060017D053EC182B51EC100B02
:1037D00000F0FAFD41EC100B6D1E04EBC50090EDFE
:1037E000001B51EC100B53EC112B00F073FB41EC60
:1037F000100B35F00600E7D1022D36D0042D1CD079
:10380000062D1CBFBDEC028B70BD53EC182B51EC88
:10381000100B00F0D9FD94ED0A1B53EC112B00F0B6
:1038200059FB53EC182B00F0CFFD94ED081B53EC23
:10383000112B00F04FFB41EC100B53EC182B51EC0B
:10384000100B00F0C1FD94ED061B53EC112B00F0A2
:1038500041FB53EC182B00F0B7FD94ED040B53EC37
:10386000102B00F037FB41EC100B53EC182B51ECF4
:10387000100B00F0A9FD94ED021B53EC112B00F08E
:1038800029FB53EC182B00F09FFD94ED001B53EC2B
:10389000112B00F01FFBBDEC028B41EC100B70BD37
:1038A0009FED070B10B553EC102B9FED070B51EC60
:1038B000100B00F0CBFB41EC100B10BD0000000022
:1038C0000000000000000000000000000000F03FC9
:1038D00010B553EC112B51EC100B00F0FBFA41EC3E
:1038E000100B10BD000000009FED050B10B553EC50
:1038F000102B51EC100B00F0A9FB41EC100B10BD8C
:1039000000000000000000009FED050B10B553EC17
:10391000102B51EC100B00F057FD41EC100B10BDBB
:1039200000000000000000709FED050B10B553EC87
:10393000102B51EC100B00F047FD41EC100B10BDAB
:10394000000000000000001082B0CDE9000121F06D
:10395000004001909DED000B02B051EC100B704740
:103960002DED028BFDF7EEF8FEF796FDFEF776FAE9
:10397000FEF7B4FAFEF7E4FAFEF71AFBFEF74EFB89
:10398000FEF714FDFEF768FBEE48F04C0121DFF86E
:10399000B8A3EF4DDFF8BC83017004F1070B81463B
:1039A00098F80000002837D00422EBA1EC48FEF77D
:1039B00063FD08B1022126E00422EAA1E848FEF7EF
:1039C0005BFD08B104211EE00422E8A1E448FEF7F3
:1039D00053FD08B1052116E00422E6A1E048FEF7F8
:1039E0004BFD08B106210EE00422E4A1DC48FEF7FD
:1039F00043FD08B1082106E00422E2A1D848FEF701
:103A00003BFD18B1092189F8001002E0012089F876
:103A10000000002188F8001099F800000A28BFD2A1
:103A2000DFE800F005060905686FA9FDFCFBB7E7B4
:103A3000FEF7B2FCB4E7D54AD549C948FEF7F0FC19
:103A4000D44800260660C048FEF796FCD2494FF4E1
:103A50000040096848622E80CC4EB2EE041A5746E8
:103A6000707800EE100A3078B8EE400AC0EE010A15
:103A700000EE100AB8EE400A30EE800A8AED000A25
:103A8000F07800EE100AB8EE400A9FEDC41AB07844
:103A9000C0EE010A00EE100AB8EE400A30EE800ACD
:103AA0008AED010AB07900F040FC41EC110B9FED6A
:103AB000BC0BFFF751F8B0EE408AF0EE608A7079E7
:103AC00000F033FC53EC182B00F0C0FA41EC180B5B
:103AD000307900F02AFC53EC182B00F0FBF99FED35
:103AE000B21B53EC112B00F0B1FA00F0C1F9012127
:103AF000B860D4E0A54AA6499948FEF791FC032195
:103B0000CDE000273E462BE09048954AA8A1C01C76
:103B1000FCF780FC26800AEB4700A670818A0A0A1F
:103B20008BF806208BF80710390A8BF802108BF8F7
:103B30000370864A8BF80060C7218BF80110D21DF4
:103B4000D11FC81CFEF76CFCC4F803602680A67069
:103B5000C4F80760C4F80B601E20FCF7D5FE7F1C7C
:103B60002888401E8742CFDB88F80060FEF714FCEF
:103B70007B480660E2E0854A85497948FEF750FCBB
:103B80007148FEF7F9FB8B49002008608149086005
:103B90007E48C17800EE101A8178F8EE400A00EEF7
:103BA000101AB8EE400ADFED841A844940EE210A6B
:103BB000C1ED000A427900EE102A0279B8EE401AEF
:103BC00000EE102AB8EE400A00EE211A81ED011A2B
:103BD000C279807900EE102A02EE100AB8EE400A8F
:103BE000B8EE422A02EE210AF6EE001A20EEA12AD1
:103BF00081ED020A81ED032ABEEE002A81ED041A4E
:103C000061EE022A62EE812A82EEA03A60EE822AFA
:103C100081ED053AC1ED062A02E047E02DE041E0E2
:103C200020EE203A20EE022A61EE211AC3EE012A8C
:103C300022EE002A21EE013A61EE811A72EE812A0B
:103C4000C1ED072A62EE202A82EE832AC1EEA02A65
:103C500072EE621AC1ED081AC1EE201AC0EE010A16
:103C6000C1ED091AC1ED0A0A31EEA00A81ED0B0A75
:103C70009FED530A81ED0C0A60E0444A44493848FC
:103C8000FEF7CEFB4348002606602F48FEF774FB84
:103C900041494FF40040096848622E80072189F8A5
:103CA00000107DE6002088F8000079E600263746FF
:103CB0003CE026482A4A3EA1C01CFCF7ABFB27800B
:103CC0000AEB4600A770B0F8A41158460A0A8BF810
:103CD00006208BF807103B4991ED000ABCEEC00AA4
:103CE00010EE101A090A8BF8041010EE101A8BF857
:103CF0000510310A8BF802108BF803602988891EA1
:103D00000A0A0270114A8BF80110D21DD11FC81C7B
:103D1000FEF786FBC4F803702780A770C4F807700D
:103D2000C4F80B701E20FCF7EFFD761C2888401E9F
:103D30008642BEDB88F80070FEF72EFB012089F872
:103D400000002DE610000020680100200000002087
:103D500012000020280000205350494400000000B9
:103D60002F0000204354554E0000000047504944A6
:103D70000000000043534554000000004352554EDC
:103D80000000000047524D530000000033000020A7
:103D90002C00002020000020DC0000200000C84291
:103DA0000000000000002440000000000000594016
:103DB000257300001C00002000008043DC0A002066
:103DC000000000002400002000B52DED048B83B01E
:103DD00041EC190B00F038FC41EC180B18EE100AFE
:103DE00018EE901A8DED008B002818BF01200843B3
:103DF00020F00040C0F17F6000F1E040C00F14D01F
:103E000019EE101A19EE900A8DED009B002918BFCB
:103E10000121084320F00040C0F17F6000F1E04044
:103E2000C00F04BF0120FCF706FC51EC180B03B0D7
:103E3000BDEC048B00BD70B54518002605F8016C7B
:103E4000144601E02E55641C2846FCF754FB401C28
:103E5000A042F7D8284670BD81F00041704780F03D
:103E60000040704721F00041704720F0004070474B
:103E700021F00042A2F16052B2F5801F01F0004330
:103E800028BFD2F17F6C0BD95FEA001C43EAC20263
:103E900042EB507018BF704728BF20F001007047F8
:103EA000B2F5801FBCBF184670474FEA410C1CF5A5
:103EB000001F02D2084600F0F3BD70B500F02EFBE3
:103EC00000000089FFF7F6BF4FF00040A0F580002A
:103ED0007047000010B591EA030F48BF83F000431C
:103EE00000F18684841A71EB030C05D2121943EB9E
:103EF0000C03001B61EB0C01DFF824E14FEA1154C5
:103F0000A4EB135C1EEA430F18BF9EEA445F73D014
:103F100023EA0E03DCF1200E21EA045143F480135E
:103F200032D322FA0CFE10EB0E0023FA0CFE41EB0A
:103F30000E01CCF1200E03FA0EFE10EB0E0051F133
:103F40000001B1F5801FCCF1200E32D201EB0451FB
:103F500012FA0EF2BDE8104058BF7047401C38BF3F
:103F60005FEA420218BF7047002814BF20F001002A
:103F700041F100014FEA410313F5001F38BF7047BC
:103F8000A1F1C04100F018BB012A43EB0302ACF1E0
:103F9000200CDCF11F0E32BF4FF0000E23FA0CF3A1
:103FA00010EB030041EB0451B4EB115FD0D0A1EB57
:103FB000045101F5801149085FEA300001EB04511A
:103FC0000ED350F1000038BF12FA0EFE08D1BDE842
:103FD0001040C9E7401C38BF5FEA4202CAD1C3E7BC
:103FE000BDE810404FEA410313F5001F38BF70478A
:103FF000A1F1C04100F0E0BA9EEA445F08D011EAA6
:104000005E0FBDE8104004BF01F000410020704782
:10401000BDE8104070B500F081FA00BF64FBBE3E01
:104020000000E0FF02494FF0000000F03EBD00BF7D
:104030000000F87F491058BFC1F140415B1058BFE4
:10404000C3F140438B42EFF3008070472DE9C0413C
:1040500030B4DFF8A0C23CEA111418BF3CEA1314D4
:1040600000F0EC8081EA03051CEA111444EAD574DF
:1040700018BF1CEA131500F0C780A4EB05044FF02D
:10408000004545EAC12145EAC32341EA505143EACC
:10409000525304F17F74994204F500344FEAC02072
:1040A0004FEAC22208BF904200F09C804FEA13659D
:1040B0000FF24016765D4FEA134506FB05F7C7F190
:1040C000807706FB07F74FEAD737A7FB03687642EE
:1040D000C8F58038A7FB06CE38BFA8F1010807FB5A
:1040E00008E64FF0000EA6FB028CE6FB03CEDCF1E7
:1040F000000CCEF1004E38BFAEF1010EA6FB0C58FD
:104100004FF000074FF00005E6FB0E87A1FB08C645
:10411000A0FB07CE16EB0E0645F10005E1FB076597
:1041200015F1E04E7EBFA4F580345FEA46066D418E
:1041300016F1800745F100054FEA17274FEA06669A
:1041400047EA0567A6F1DE46B6F1805F4FEA15251E
:104150001FD9384624F0010C05EBC471BCF1FE6F89
:1041600001EB0C1102D8F0BCBDE8008124425CBF19
:1041700001F5801E9EEAC47F02D4F0BCBDE8008138
:10418000244238D4F0BCA1F1C041BDE8004100F0A8
:1041900013BA4FEAD22242EA43524FEAD323A7FB93
:1041A00002864FEAD02040EA415007FB03661EEA30
:1041B0000E0F4FEAD12105FB026658BFA6EB005651
:1041C000B6EB00564FEA520E4EEAC37E18EB0E0EC7
:1041D00056EB530EBDD518EB02085E417F1C55F11E
:1041E0000005B6E74FF480154FF000074FF00006CA
:1041F0004FF00008ADE7F0BC4FF0000001F1C04106
:1042000001F00041BDE8008111EA0C1F0CEA131512
:1042100000D00CE013EA0C1F00F025804FF00000E6
:10422000F0BC81EA030101F00041BDE80081F0BC6F
:10423000BDE8004181EA030100F0BEB9F0BCBDE871
:10424000004170B500F06AF9097EFC3E00F007B845
:1042500081EA03014FF0000001F00041704781EA5C
:10426000030100F0A9B9F0BCBDE800414FF0000027
:1042700021497047FFFDFBF9F7F5F4F2F0EEEDEBA5
:10428000E9E8E6E4E3E1E0DEDDDBDAD8D7D5D4D354
:10429000D1D0CFCDCCCBCAC8C7C6C5C4C2C1C0BFA0
:1042A000BEBDBCBBBAB9B8B7B6B5B4B3B2B1B0AFA6
:1042B000AEADACABAAA9A8A8A7A6A5A4A3A3A2A18A
:1042C000A09F9F9E9D9C9C9B9A9999989797969545
:1042D00095949393929191908F8F8E8E8D8C8C8BE1
:1042E0008B8A898988888787868585848483838269
:1042F000828181800000FF070000F87F10F00042FB
:1043000048BF4042B0FA80F310FA03F10AD0C3F17B
:104310001D0303F580634FEA415002EB035202EBA9
:10432000D12170474FF000007047B0FA80F310FAC7
:1043300003F10AD0C3F11D0303F580634FEA415036
:104340004FEA035202EBD12170474FF00000704753
:1043500051EA030C17D41CF5801F58BFBCF5801F11
:1043600000F10680994218BF704708BF904270471D
:1043700007D711F5801F58BF13F5801F19D4994234
:104380007047894270471CF5801F08D5BCF5801F17
:10439000F7D58B4218BF704708BF824270474FF471
:1043A000001C1CEB410F38BF1CEB430F01D28B42AA
:1043B000704770B500F0B2F8922449004FF00051F8
:1043C0004FF08053FFF736BEDFF848C170B51CEAE6
:1043D000111E1EBF1CEA13159EEA0C0F95EA0C0F66
:1043E00000F06F8081EA030423EA4C134EEAD47E86
:1043F00021EA4C1141F4801143F48013AE44A1FB37
:10440000024CA0FB0365AEF17F7E361955EB0C051F
:10441000A1FB034C4CF10003A0FB021C16EB0C06A5
:10442000654153F10003094218BF46F0010613F439
:10443000007F0BD14FEA03314FEA0530340341EAE4
:10444000155140EA16506FF003020AE04FEAC3210B
:104450004FEAC520F40241EA555140EA56506FF048
:10446000020202EB2E4201EB025585EACE710AD020
:104470005FEA440C18BF24F0004450F1000041F101
:10448000000120EAD47040F2FE7C624500D270BD8B
:10449000A84214BF4FF080444FF04044002E08BFA4
:1044A0000024BEF1806FA8BFA1F1C041BDE87040FB
:1044B00080F282804FF0000001F1C04101F0004124
:1044C00070479EEA0C0F0CEA131518BF95EA0C0F03
:1044D00006D04FF0000081EA030E0EF0004170BDDF
:1044E00000F01CF88900013E00F007B800F009B8A0
:1044F0004FEA430C5FEA5C5C08D081EA030100F0FC
:104500005BB84FEA410C5FEA5C5CF6D14FF000000B
:10451000014970470000FF070000F87F0EF1020E0E
:104520002EF0030E5EF8046B364205D4012A43EBED
:10453000030515F5001F12D8012841EB010C1CF5ED
:10454000001F0CD80ED14FEAD17C15F5001F0CEBE3
:104550004C0C0CF1020C08BF4CEBD37C04E04FF088
:10456000080C01E04FEAD37C0CEB4C0526FA05F66B
:1045700006F00706B6F1040C06D20EEB860CBDE879
:1045800070404CF0010C6047DFE80CF0090B0202B0
:104590004FF000414FF00000A1F5002170BD194619
:1045A0001046012851EB010418BFD4F5001484BF54
:1045B000002001F0004170BD0808A0F500114FEA8D
:1045C0003101704753EA010C17D41CF5801F58BF06
:1045D000BCF5801F00F106808B4218BF704708BFF2
:1045E0008242704707D713F5801F58BF11F5801F0F
:1045F00019D48B4270479B4270471CF5801F08D529
:10460000BCF5801FF7D5994218BF704708BF90428C
:1046100070474FF4001C1CEB430F38BF1CEB410FDD
:1046200001D2994270470FB40CBC03BCFFF7C1BE66
:1046300091EA030F10B581F000413FF553AC83F0D0
:10464000004300F0D5B800002DE9F04101F5801CD1
:10465000BCF5001FC0F2A9804FEA115C21EA0C51A1
:104660000CF1FD0C41F480115FEA5C0C0CF5C07C90
:1046700001D34000494130A4890241EA90518702A8
:104680008E0E0A0CA45D04FB04F602FB06F6C6F1CE
:104690004046A4FB0662F60D46EA422606FB06F4F7
:1046A000A4FB01235242C3F1404338BF5B1EA6FB6B
:1046B00002420024E6FB0324D20B42EA4446A6FB56
:1046C0000623A1FB02E2A3FB07E4E3FB6142644291
:1046D000C2F1404E38BFAEF1010EA6FB04234FF0ED
:1046E0000002E6FB0E32A2FB03463400E2FB6264EA
:1046F000A1FB06E6A4FB07E8E4FB61687642C8F18B
:10470000405838BFA8F10108A2FB06E4A3FB08E566
:10471000E2FB6854A1FB05E6A7FB04E8E1FB648625
:1047200018F1200556F10006A809A8F11B08B109E7
:1047300008F03F08B8F10A0F40EA86601CD901EB87
:104740000C51BDE8F08100BFFCF5EEE8E2DDD8D306
:10475000CFCBC7C3C0BDB9B6B4B1AEACA9A7A5A3F2
:10476000A19F9D9B9A9896959392908F8D8C8B8903
:104770008887868584838281A0FB006800FB01F224
:1047800008EB4208B8EB872807D5341858EB01042A
:10479000D5D5401C51F10001D1E7341A78EB010462
:1047A000CDD4401E71F10001C9E75FEA4C0C5FEA0D
:1047B0009C5C0DD105D34FF0000001F00041BDE835
:1047C000F081BDE8F04170B5FFF7A8FE6DDBFFBEDC
:1047D000BDE8F0414FF00000004970470000F87F4D
:1047E00010B591EA030F48BF83F000433FF57AAB61
:1047F000841A71EB030C07D212198CF0004C43EBB6
:104800000C03001B61EB0C01DFF8A4E14FEA11542B
:10481000A4EB135C1EEA430F18BF9EEA445F00F04E
:10482000B08023EA6E03524221EA0451C3EB6E03C7
:1048300038BF5B1EDCF1200E25D322FA0CFE10EBF4
:104840000E0043FA0CFE41EB0E01CCF1200E03FAF0
:104850000EFE10EB0E0051F10001CCF1200E29D418
:1048600012FA0EF201EB0451BDE8104058BF704738
:10487000401C1CBFB2F1004F704700280CBF491C00
:1048800020F00100704712EB020E43EB030218BF49
:104890004FF0010E4EEA4202ACF1200CDCF11E0E8C
:1048A00054D943FA0CFE10EB0E0051F1FF31CCF15C
:1048B0001E0ED5D50EF1010E12FA0EFE404141EB4F
:1048C000010101EB445C5FEA5C5C10D910EBDE7027
:1048D00001EB045138BFBEF1004FBDE8104018BFD6
:1048E000704700280CBF491C20F00100704730D2EF
:1048F0004FEAD42C11F5001124F400641BD0B1FA56
:1049000081F20B3AA41AA41ED2F12003914030FA8E
:1049100003F31943904001EBCC71002C01EB0451DF
:10492000BDE81040A8BF704701F1C0414FF0000042
:1049300001F000417047B0FA80F310FA03F100D1A2
:1049400010BDE41A173C4805C90AE4E701EB04511D
:1049500010BD491001EB0451BDE810404FEA300092
:1049600002E04FF0000170474A0008BF0042F8D053
:10497000B2F5001F28BF704701F000414FF0000062
:1049800070479EEA445F07D011EA5E0FBDE8104011
:1049900004BF002100207047BDE8104070B5FFF74C
:1049A000BDFD00BF40DFF63E83F00041104670477A
:1049B0000000E0FF43004FEAD30C4FEA3C0C4340B9
:1049C0001FBF40070CF1605113F0FE4F70471CF001
:1049D000006F03D100200CF0004170470CF0004341
:1049E00043EA507010B540EACC0000F00EF800BF6A
:1049F000000000924FEA0001FFF7DEBD4FF00041DA
:104A00004FF00000A1F5002170470EF1020E2EF0CC
:104A1000030E5EF8044B244204D44FEA4102B2F183
:104A20007F4F11D84FEA4003B3F17F4F0CD80ED11E
:104A30004FEAD07CB2F17F4F0CEB4C0C0CF1020C26
:104A400008BF4CEBD17C04E04FF0080C01E04FEACA
:104A5000D17C0CEB4C0324FA03F404F00704B4F10A
:104A6000040C06D20EEB840CBDE810404CF0010C97
:104A70006047DFE80CF0070802024FF00040A0F5A5
:104A8000800010BD0846420018BFD2F1807288BF76
:104A900000F0004010BD4FF04070E1EE100A70478A
:104AA000FF2141EAD050C00570470CF00F03092BDD
:104AB00008BF082000F059800A2B0BD0082B18BF24
:104AC000704708BF1CF0400F0AD04FF000004FF0B5
:104AD000000170471CF0400F18BF4FF000407047B6
:104AE0001CF0100F08D020F0704300F07F4242EA23
:104AF000D3014FEA4370704700F0604021F07F42DD
:104B000042EA000201F07F4040EA727070474FF0C5
:104B1000FF0C4CF4E06C1CEA11531CBF9CEA030C24
:104B20009445C2BFDA4201EB02517047002B0DD011
:104B3000BCF1000F0FD0002A01F00041A4BF41F0EA
:104B4000E04141F07F614FF00000704701F000410B
:104B50004FF00000704750EA01334FF09B0C18BF34
:104B60004CF0806C7FF45EAA70471CF4801F11D05B
:104B70001CF4E02F03D06FEACC31490070474FF0AE
:104B80004050EFF3008222F0704242EA000282F3CA
:104B9000008870474FF000007047000000000000E0
:104BA00000000102030406070809000000000102DA
:104BB0000304000000000000000000000000F03FBF
:104BC000000000000000F83F0000000000000000AE
:104BD0000000004003B8E23F0000000000000000B9
:104BE00006D0CF43EBFD4C3E033333333333E33F47
:104BF000FFAB6FDBB66DDB3F4D268F515555D53F73
:104C000001411DA96074D13F65DBC9934A86CD3F40
:104C1000EF4E454A287ECA3F3E5555555555C53F2E
:104C200093BDBE166CC166BF2CDE25AF6A56113F20
:104C3000F16BD2C541BDBBBED0A4BE726937663E22
:104C40000000000000000000684C00080000002088
:104C50004C000000C4010008B44C00084C000020C7
:104C60003C110000E001000800000000000000000E
:104C70000000000000000000000000000000000034
:104C80000000000000000000000000000000000024
:104C90000002030600000000000000000000000009
:104CA00000000000010000001000000000000000F3
:044CB0000024F400E8
:040000050800018965
:00000001FF
